:1000000033C0000044C0000042C0000040C00000F7
:100010003EC000003CC000003AC0000038C00000F4
:1000200036C0000034C0000032C0000030C0000004
:100030002EC000002CC000002AC0000028C0000014
:1000400026C0000024C0000022C0000020C0000024
:100050001EC000001CC000001AC0000018C0000034
:1000600016C0000014C0000011241FBECFEFD8E05E
:10007000DEBFCDBF11E0A0E0B1E0EAE5FDE002C0E7
:1000800005900D92A230B107D9F770D564C6B8CFEC
:10009000BF92CF92DF92EF92FF920F931F93CF9375
:1000A000DF9300D000D0CDB7DEB769837A838B832E
:1000B0009C83C901E4E3F8E3E980FA800B811C81A9
:1000C0000F921F92DF2CCE2CB02E242F192E082E2B
:1000D00009952131F9F71F900F900F900F900F9015
:1000E0000F90DF91CF911F910F91FF90EF90DF90D4
:1000F000CF90BF900895BF92CF92DF92EF92FF9280
:100100000F931F93CF93DF9300D000D0CDB7DEB70E
:1001100069837A838B839C83C901E4E3FFE3E980ED
:10012000FA800B811C810F921F92DF2CCE2CB02EF7
:10013000242F192E082E09952131F9F71F900F90C1
:100140000F900F900F900F90DF91CF911F910F9113
:10015000FF90EF90DF90CF90BF900895CF92DF9205
:10016000EF92FF92CF93DF936B017C01CA01E9010B
:100170002138310510F0C0E8D0E0B701A601407881
:100180009E01EBD4CE01DF91CF91FF90EF90DF90F5
:10019000CF900895AF92BF92CF92DF92EF92FF92ED
:1001A0000F931F93CF93DF93CDB7DEB72A970FB688
:1001B000F894DEBF0FBECDBF6B017C0158012987CB
:1001C0003A8789859A858138910520F0A0E8B0E0CA
:1001D000BA87A98709851A8516950795D701C6019B
:1001E000807889839A83AB83BC8369817A817A0121
:1001F000DA0130E020E0C12CD12C20173107B9F50D
:10020000DD2009F465C0CC2049F030E020E043E077
:1002100069817A818B819C81F501099589819A8117
:10022000AB81BC818D839E83AF83B887D12CC12CD9
:10023000C016D10699F530E020E045E069817A8169
:100240008B819C81F501099589859A852A960FB63F
:10025000F894DEBF0FBECDBFDF91CF911F910F91FC
:10026000FF90EF90DF90CF90BF90AF900895FB018B
:10027000459154918D919D918417950751F08095EA
:100280009095842B952BDD24D394019611F0CC24EA
:10029000C3942F5F3F4F6E5F7F4FAFCFD7012D913C
:1002A0003D917D0141E06D817E818F819885F501D1
:1002B00009958D819E81AF81B8850296A11DB11DE2
:1002C0008D839E83AF83B8879FEFC91AD90AB0CFB9
:1002D0001A861986B9CF6BC00000AAC000008EC074
:1002E00000008CC000008AC0000088C0000086C0EA
:1002F000000084C0000082C0000080C000007EC0FA
:1003000000007CC000007AC0000078C0000076C009
:10031000000074C0000072C0000070C000006EC019
:1003200000006CC000006AC0000068C0000066C029
:10033000000064C0000062C0000060C00000EC2D3E
:10034000FD2DB7B6B0FCFDCF27BFE895B7B6B0FC22
:10035000FDCF21E1B7B6B6FCF4CF08950902120033
:1003600001010080320904000000000000001201B9
:100370001001FF000008C016DC05020101020001A7
:100380000E035500530042006100730070001C030F
:100390007700770077002E00660069007300630025
:1003A00068006C002E006400650004030904112439
:1003B0001FBECFEFD8E0DEBFCDBF24B7D8E0CEEF71
:1003C00039913833399109F03FEF30933C01209354
:1003D0003B0111E0A0E0B1E0EEE7F8E702C00590D4
:1003E0000D92A630B107D9F721E0A6E0B1E001C037
:1003F0001D92AB33B207E1F77BD1AAC36CCFA82F14
:10040000B92F80E090E041E050EA609530E009C00B
:100410002D9182279795879510F084279527305E38
:10042000C8F36F5FA8F30895EADF8D939D93089555
:10043000CF93CFB7CF93DF93C3954B9BE9F74B9BFC
:100440000BC04B9B09C04B9B07C04B9B05C04B9BF4
:1004500003C04B9B01C089C06F93C0911901DD2778
:10046000C65EDE4F2F9365E54B9B03C02F916F91C6
:10047000E6CF0F931F934F9320E040E15F9309B1C4
:100480000C7003FB27F93F9350E03BE039C01C7030
:1004900040642F77012F5F5F1EC0406819B11C7048
:1004A0002F7752501FC0406409B12F770C70D1F1E3
:1004B0005F5F00C023C0406219B12F771C7091F1BB
:1004C0005F5F00C025C00C701027515012F45D5FB3
:1004D0000000115027952C3F19B1C8F61C70012758
:1004E000015027952C3FC8F64227499309B10C705B
:1004F00010274F73115027952C3FA8F64695469527
:1005000019B11C7079F00127015027952C3F98F6FE
:100510006B5A60F3315009B1B0F600C011E01CBB5A
:10052000002717C03B503195C31BD04011E01CBBC6
:100530000881033CF9F00B34E9F02091180119818E
:10054000110F1213EDCF093651F10D3211F0013EAA
:1005500039F7009314013F915F914F911F910F91D3
:100560002F916F91CCB3C0FD67CFDF91CF91CFBFFB
:10057000CF91189520911401222369F31091150150
:10058000112339F534303AF13093150120931301DA
:10059000109119013BE0311B309319011CC00091EF
:1005A00015010130B4F40AE53091010134FD14C0A5
:1005B00000930101C8E0D1E013C0052710E000C09E
:1005C00000000BB91AC0052710E0221F1DC010E063
:1005D00021C04AE502C032ED432FC4E1D0E032E051
:1005E0001AB11C605B9A0BB11AB95CE020E865E3B4
:1005F00020FF05270BB9279517951C3FF0F6669548
:10060000B8F7B1F720FF05270BB9279517951C3FC1
:10061000D0F62795179517FF052700001C3F0BB94B
:10062000B0F629913A9519F7037F10911701110F30
:10063000C651D0400BB911F01093180111E01CBB4A
:1006400008601AB1137F402F437F54E05A95F1F7A9
:100650000BB91AB94BB97FCFFC0143813481838137
:1006600094819827892798272281203339F4337081
:10067000E32FF0E0EE5FFE4F80810895283561F4AE
:1006800089E0E1E0F0E0442371F089E0E3E0F0E0AC
:10069000483049F080E00895203579F4411107C0D1
:1006A00089E0F0E0E0E0809357008491089589E0CC
:1006B000E2E0F0E0483071F7F6CF203229F4880FFD
:1006C000991FFC0184910895283221F4880F991F05
:1006D0000196F7CF203A09F425C2203C19F4658130
:1006E00029D2D8CF2F3FB1F681EF80933901D2CFF5
:1006F0001AB880E18BB981E085BF82E085BFE0E078
:10070000F1E7A89531978040E1F780913B01877F21
:1007100021F480913C01882371F04C9B0CC0F8942B
:10072000539A1BB81DBA1092690081E085BF15BEAF
:10073000F0E0E0E009958EEF8093390114BE0FB62A
:10074000F894A89580916000886180936000109271
:1007500060000FBE80916900826080936900E89A12
:10076000539A8CE0E0E0F5E3A89531978040E1F7FB
:100770005398789410911501135017FD5AC0809129
:100780001901CCE0D0E0C81BD109C65EDE4F8091D4
:1007900013018D3209F00CC1183009F048C083EC08
:1007A000809308018AE58093010110923A01388113
:1007B000832F80769981882309F49CC040E351E01F
:1007C0005093070140930601933069F4CE0144DF52
:1007D0008093330184E09F81911127C09E819817F7
:1007E00020F5892F22C0953009F4E0C09A3009F431
:1007F000DDC08CEF890F863008F071C04A815B81C3
:100800005093380140933701993009F46FC08E81BD
:10081000809336012D81227020933501909334010D
:1008200037FF8FEF90E890933A0180930001109288
:1008300015018091010184FF37C0C0910001CF3FB5
:1008400099F18C2FC93008F088E09C2F981B909369
:1008500000019091080128E8922790930801CC2389
:10086000B1F030913A0137FF2EC190913601C82F77
:10087000981708F4C92F9C1B90933601D09034012F
:10088000D0E089E0E82E81E0F82ECD1305C16C2F71
:1008900089E091E0C9DD84E08C0FC83019F09FEF4A
:1008A000909300018093010184E199B19C7031F42F
:1008B0008150D9F7109217011092180180913901D7
:1008C000803108F424C14C9B05C0809139018051CE
:1008D000809339018091390181114CCF20CF8091D3
:1008E0003901923029F48E7F8093390180E073CFF3
:1008F0008160FACF2A811092110191110AC01092E1
:10090000120121E131E082E03093070120930601DA
:1009100062CF953029F42093170121E131E0F4CF23
:10092000963099F59B81913059F488E990E790933E
:1009300007018093060182E190E490933A014BCF46
:10094000923019F486E890E7F2CF9330A9F721119D
:1009500008C084ED90E7909307018093060184E03E
:10096000EBCF213041F488EB90E79093070180931F
:1009700006018CE1E1CF2230F9F68AEA90E7909304
:100980000701809306018EE0D7CF983059F0993057
:1009900019F420931601C1CF81E09A3009F4BDCF3C
:1009A00080E0BBCF26E131E081E0AECF81E013CF24
:1009B00080913A0187FF3BCF00913601011708F47F
:1009C000102F011B00933601F12CF11628F00111B4
:1009D0002ECF109200012BCF8091370190913801DA
:1009E00020913401273058F069919C012F5F3F4FCF
:1009F00030933801209337019DD0F394E6CF8115D1
:100A0000904738F7F394F394F894E0913701F0911C
:100A100038012991399181E0090180935700E895C7
:100A20001124789480913701909138010296909327
:100A30003801809337018F779927892B51F0011165
:100A4000C4CFF11608F4C1CF80913501882309F491
:100A5000BCCFF894E0913701F0913801329783E0F0
:100A600080935700E895789407B600FCFDCFF89482
:100A7000E0913701F0913801329785E0809357007B
:100A8000E895789407B600FCFDCFF89481E1809357
:100A90005700E895789499CF00913701109138016B
:100AA00026E02D1568F4C8013DD0F70181937F0140
:100AB0000F5F1F4F1093380100933701DF5FE5CEC2
:100AC000F8018491F2CF9091060120910701482FFF
:100AD000490FE92FF22F36FF10C029E031E0949141
:100AE000D9019C932F5F3F4F31964E13F8CFF0936F
:100AF0000701E0930601C82FCACE29E031E0D901F1
:100B000091919C932F5F3F4F4E13F9CFF0CF4C99AB
:100B1000E1CE80913901823008F4DCCE8091390138
:100B20008250D6CEF999FECF92BD81BDF89A992711
:100B300080B50895262FF999FECF1FBA92BD81BDC9
:100B400020BD0FB6F894FA9AF99A0FBE019608954F
:100B5000F894FFCFFF5A1E950F00FA01DC0102C086
:100B600005900D9221503040D8F70895CDB7DEB7EB
:100B7000C458D1090FB6F894DEBF0FBECDBF14BE66
:100B80000FB6F894A895809160008861809360000A
:100B9000109260000FBEF894209100013091010185
:100BA00080E090E7F90165917491FC0145915491C1
:100BB0006417750709F4B6C081E0898398E6892E29
:100BC00090E7992EA12CB12CB501A401407820E822
:100BD00030E0CE0101967C01C0DFD501C40188560A
:100BE000924FAF4FBF4FCF57DF4F88839983AA8370
:100BF000BB83C158D04008E410E020E830E0A701F2
:100C0000BC01CD01C7DA90E8890E911CA11CB11C72
:100C10006701A8E68A16A2E79A06A104B104A1F624
:100C2000812C80E7982EA12CB12C7401B0E7FB1A1F
:100C300040E850E06FEF70E0C60186D040910001BF
:100C4000509101014E0D5F1D052E000C660B770BB8
:100C500020E830E0C60181DF0BE710E020E830E05B
:100C6000A601C501B40196DA40E8840E911CA11CCE
:100C7000B11C811483E79806A104B104B1F680E8A1
:100C800092E7A0E0B0E0CF57DF4F88839983AA8333
:100C9000BB83C158D04040E850E06FEF70E0C60120
:100CA00053D024E838E02E193F092138310510F0DF
:100CB00020E830E040910001509101014E0D5F1D90
:100CC000052E000C660B770BC60147DF08E410E029
:100CD00020E830E0A601CF57DF4F688179818A8113
:100CE0009B81C158D04056DA90E8E90EF11CCF57ED
:100CF000DF4F88819981AA81BB81C158D04080583B
:100D00009F4FAF4FBF4FCF57DF4F88839983AA8341
:100D1000BB83C158D04094E8E91698E0F90608F47E
:100D2000BACF08C02E5F3F4F0296843848E7940739
:100D300009F038CF90E080E0CC57DF4F0FB6F89441
:100D4000DEBF0FBECDBF0895DC0101C06D934150E1
:0A0D50005040E0F70895F894FFCF3B
:020D5A00D602BF
:00000001FF
