:107000006BC00000AAC000008EC000008CC0000051
:107010008AC0000088C0000086C0000084C0000054
:1070200082C0000080C000007EC000007CC0000064
:107030007AC0000078C0000076C0000074C0000074
:1070400072C0000070C000006EC000006CC0000084
:107050006AC0000068C0000066C0000064C0000094
:1070600062C0000060C00000EC2DFD2DB7B6B0FC82
:10707000FDCF27BFE895B7B6B0FCFDCF21E1B7B68D
:10708000B6FCF4CF08950902120001010080320914
:10709000040000000000000012011001FF000008C1
:1070A000C016DC050201010200010E035500530069
:1070B00042006100730070001C03770077007700C6
:1070C0002E00660069007300630068006C002E00EB
:1070D000640065000403090411241FBECFEFD8E04B
:1070E000DEBFCDBF24B7D8E0CEEF39913833399128
:1070F00009F03FEF30933C0120933B0111E0A0E009
:10710000B1E0EEE7F8E702C005900D92A630B107B6
:10711000D9F721E0A6E0B1E001C01D92AB33B20780
:10712000E1F77BD1AAC36CCFA82FB92F80E090E004
:1071300041E050EA609530E009C02D918227979593
:10714000879510F084279527305EC8F36F5FA8F30A
:107150000895EADF8D939D930895CF93CFB7CF9392
:10716000DF93C3954B9BE9F74B9B0BC04B9B09C02F
:107170004B9B07C04B9B05C04B9B03C04B9B01C067
:1071800089C06F93C0911901DD27C65EDE4F2F9332
:1071900065E54B9B03C02F916F91E6CF0F931F9333
:1071A0004F9320E040E15F9309B10C7003FB27F996
:1071B0003F9350E03BE039C01C7040642F77012FB3
:1071C0005F5F1EC0406819B11C702F7752501FC0FE
:1071D000406409B12F770C70D1F15F5F00C023C00C
:1071E000406219B12F771C7091F15F5F00C025C01C
:1071F0000C701027515012F45D5F0000115027955C
:107200002C3F19B1C8F61C700127015027952C3F5F
:10721000C8F64227499309B10C7010274F731150DB
:1072200027952C3FA8F64695469519B11C7079F024
:107230000127015027952C3F98F66B5A60F3315087
:1072400009B1B0F600C011E01CBB002717C03B50CD
:107250003195C31BD04011E01CBB0881033CF9F001
:107260000B34E9F0209118011981110F1213EDCFA1
:10727000093651F10D3211F0013E39F70093140136
:107280003F915F914F911F910F912F916F91CCB3CF
:10729000C0FD67CFDF91CF91CFBFCF9118952091DF
:1072A0001401222369F310911501112339F53430AB
:1072B0003AF13093150120931301109119013BE02D
:1072C000311B309319011CC0009115010130B4F439
:1072D0000AE53091010134FD14C000930101C8E0BA
:1072E000D1E013C0052710E000C000000BB91AC0A0
:1072F000052710E0221F1DC010E021C04AE502C092
:1073000032ED432FC4E1D0E032E01AB11C605B9A49
:107310000BB11AB95CE020E865E320FF05270BB943
:10732000279517951C3FF0F66695B8F7B1F720FF43
:1073300005270BB9279517951C3FD0F6279517956C
:1073400017FF052700001C3F0BB9B0F629913A95AD
:1073500019F7037F10911701110FC651D0400BB9D7
:1073600011F01093180111E01CBB08601AB1137FD3
:10737000402F437F54E05A95F1F70BB91AB94BB936
:107380007FCFFC01438134818381948198278927B1
:1073900098272281203339F43370E32FF0E0EE5F39
:1073A000FE4F80810895283561F489E0E1E0F0E046
:1073B000442371F089E0E3E0F0E0483049F080E0F8
:1073C0000895203579F4411107C089E0F0E0E0E04C
:1073D000809357008491089589E0E2E0F0E048301E
:1073E00071F7F6CF203229F4880F991FFC018491A0
:1073F0000895283221F4880F991F0196F7CF203A7B
:1074000009F425C2203C19F4658129D2D8CF2F3F39
:10741000B1F681EF80933901D2CF1AB880E18BB9F0
:1074200081E085BF82E085BFE0E0F1E7A895319774
:107430008040E1F780913B01877F21F480913C01FE
:10744000882371F04C9B0CC0F894539A1BB81DBA5A
:107450001092690081E085BF15BEF0E0E0E009957B
:107460008EEF8093390114BE0FB6F894A8958091E1
:107470006000886180936000109260000FBE809170
:107480006900826080936900E89A539A8CE0E0E09A
:10749000F5E3A89531978040E1F7539878941091DF
:1074A0001501135017FD5AC080911901CCE0D0E0AE
:1074B000C81BD109C65EDE4F809113018D3209F0E1
:1074C0000CC1183009F048C083EC809308018AE5AC
:1074D0008093010110923A013881832F807699813F
:1074E000882309F49CC040E351E050930701409386
:1074F0000601933069F4CE0144DF8093330184E0C8
:107500009F81911127C09E81981720F5892F22C055
:10751000953009F4E0C09A3009F4DDC08CEF890F92
:10752000863008F071C04A815B81509338014093E6
:107530003701993009F46FC08E81809336012D8117
:107540002270209335019093340137FF8FEF90E83C
:1075500090933A01809300011092150180910101EE
:1075600084FF37C0C0910001CF3F99F18C2FC93003
:1075700008F088E09C2F981B9093000190910801DF
:1075800028E8922790930801CC23B1F030913A017A
:1075900037FF2EC190913601C82F981708F4C92FD4
:1075A0009C1B90933601D0903401D0E089E0E82E06
:1075B00081E0F82ECD1305C16C2F89E091E0C9DD83
:1075C00084E08C0FC83019F09FEF909300018093F6
:1075D000010184E199B19C7031F48150D9F7109286
:1075E00017011092180180913901803108F424C1EB
:1075F0004C9B05C080913901805180933901809165
:10760000390181114CCF20CF80913901923029F47A
:107610008E7F8093390180E073CF8160FACF2A8119
:107620001092110191110AC01092120121E131E072
:1076300082E0309307012093060162CF953029F450
:107640002093170121E131E0F4CF963099F59B8129
:10765000913059F488E990E79093070180930601EF
:1076600082E190E490933A014BCF923019F486E88E
:1076700090E7F2CF9330A9F7211108C084ED90E78D
:10768000909307018093060184E0EBCF213041F411
:1076900088EB90E790930701809306018CE1E1CF9E
:1076A0002230F9F68AEA90E7909307018093060169
:1076B0008EE0D7CF983059F0993019F42093160105
:1076C000C1CF81E09A3009F4BDCF80E0BBCF26E185
:1076D00031E081E0AECF81E013CF80913A0187FFA6
:1076E0003BCF00913601011708F4102F011B0093C6
:1076F0003601F12CF11628F001112ECF1092000165
:107700002BCF80913701909138012091340127309F
:1077100058F069919C012F5F3F4F309338012093BF
:1077200037019DD0F394E6CF8115904738F7F39455
:10773000F394F894E0913701F0913801299139914F
:1077400081E0090180935700E89511247894809195
:107750003701909138010296909338018093370158
:107760008F779927892B51F00111C4CFF11608F4B6
:10777000C1CF80913501882309F4BCCFF894E09102
:107780003701F0913801329783E080935700E895F4
:10779000789407B600FCFDCFF894E0913701F091A2
:1077A0003801329785E080935700E895789407B6C2
:1077B00000FCFDCFF89481E180935700E895789420
:1077C00099CF009137011091380126E02D1568F40A
:1077D000C8013DD0F70181937F010F5F1F4F1093C8
:1077E000380100933701DF5FE5CEF8018491F2CFD5
:1077F0009091060120910701482F490FE92FF22FA0
:1078000036FF10C029E031E09491D9019C932F5F9D
:107810003F4F31964E13F8CFF0930701E0930601E6
:10782000C82FCACE29E031E0D90191919C932F5FF6
:107830003F4F4E13F9CFF0CF4C99E1CE80913901F3
:10784000823008F4DCCE809139018250D6CEF9998D
:10785000FECF92BD81BDF89A992780B50895262F55
:10786000F999FECF1FBA92BD81BD20BD0FB6F89425
:0E787000FA9AF99A0FBE01960895F894FFCF88
:06787E00FF5A1E950F00E9
:040000030000700089
:00000001FF
